:03000000020006F5
:03005F0002000399
:0300030002007F79
:200062007CC07DD47E017F001CBCFF091DBDFF051EBEFF011FEC4D4E4F70ED002275C62D7D
:2000820075BAF07590007CC07DD47E017F001CBCFF091DBDFF051EBEFF011FEC4D4E4F70B0
:0600A200ED00B29680E0C3
:06003500E478FFF6D8FD9F
:200013007900E94400601B7A009000AC780075A000E493F2A308B8000205A0D9F4DAF275E8
:02003300A0FF2C
:20003B007800E84400600A790075A000E4F309D8FC7800E84400600C7900900000E4F0A3C5
:04005B00D8FCD9FAFA
:0D0006007581071200A8E582600302000367
:0400A800758200223B
:00000001FF
