:03000000020008F3
:090061007508007509F4020003A2
:0300030002009563
:20006A00AE82AF837C007D00C3EC9EED9F501B7A787B00EA24FFF8EB34FFF988028903E850
:20008A004970F00CBC00E10D80DE227F0175C6F075BE1C75C2119001F4C00712006AD00796
:2000AA00EF60078F06EE2EFF80027F01EF540124FF92C0EF03540124FF92B4EF030354017B
:2000CA0024FF92B3EFA2E3E43324FF92B2EFC45401FE24FF92C4E5C120E6BB7FFFC007850C
:0C00EA000882850983120006D00780AA56
:06003700E478FFF6D8FD9D
:200015007900E94400601B7A009000FA780075A000E493F2A308B8000205A0D9F4DAF27598
:02003500A0FF2A
:20003D007800E84400600A790075A000E4F309D8FC7800E84400600C7900900000E4F0A3C3
:04005D00D8FCD9FAF8
:0F000600E4737581091200F6E5826003020003BE
:0400F60075820022ED
:00000001FF
